:100000000C946D000C9495000C9495000C94950044
:100010000C9495000C9495000C9495000C9495000C
:100020000C9495000C9495000C9495000C949500FC
:100030000C9495000C9495000C9495000C949500EC
:100040000C9445090C9495000C94C3070C94F50787
:100050000C9495000C9495000C9495000C949500CC
:100060000C9495000C949500DB0FE10FEB0FF90F4A
:10007000FB0F01100B1019102B102D1000000008A1
:10008000000201000003040700000000000000005F
:10009000010204081020408001020408102001021F
:1000A00004081020040404040404040402020202EC
:1000B00002020303030303030000000023002600E1
:1000C000290000000000250028002B00000000008F
:1000D000240027002A005B06250811241FBECFEF4D
:1000E000D8E0DEBFCDBF11E0A0E0B1E0E0E1F4E296
:1000F00002C005900D92AA3FB107D9F723E0AAEFFD
:10010000B1E001C01D92A73DB207E1F710E0CDE6D6
:10011000D0E004C02197FE010E94EC11CB36D1073C
:10012000C9F70E9453080C9406120C94000020E0BA
:1001300042E060E184E192E00E943F0E44EB50E037
:1001400060E070E08AEF91E00E94400F26E040E816
:1001500055E260E070E081E393E00C945E078091EB
:100160000E03813361F480910C0390910D0301968D
:1001700090930D0380930C0381E090E045C082339F
:1001800061F480910C0390910D03019690930D03FF
:1001900080930C0382E090E037C0833361F4809158
:1001A0000C0390910D03019690930D0380930C0323
:1001B00083E090E029C0843361F480910C03909136
:1001C0000D03019690930D0380930C0384E090E05F
:1001D0001BC0853361F480910C0390910D0301964F
:1001E00090930D0380930C0385E090E00DC086335F
:1001F00081F480910C0390910D03019690930D036F
:1002000080930C0386E090E09093300380932F035B
:100210000895873361F480910C0390910D0301964A
:1002200090930D0380930C0387E090E0EDCF88332B
:1002300061F480910C0390910D03019690930D034E
:1002400080930C0388E090E0DFCF893361F48091E4
:100250000C0390910D03019690930D0380930C0372
:1002600089E090E0D1CF803369F480910C039091C4
:100270000D03019690930D0380930C0310923003AD
:1002800010922F030895AF92BF92CF92DF92EF9218
:10029000FF920F931F93CF93DF9380E4A82E82E405
:1002A000B82E90EAC92E96E8D92E20E1E22E27E258
:1002B000F22E08EE13E0D4E610920D0310920C0318
:1002C00010920B0310920A0310922C0310922B032E
:1002D0001092300310922F0310922E0310922D03D0
:1002E00040E062E084E192E00E94240E60E371E06D
:1002F00084E192E00E94A20841E061E084E192E0A2
:100300000E94240E6CE371E084E192E00E94A20856
:100310008BE992E00E94590D833209F026C140E03A
:1003200060E084E192E00E94240E6CE471E084E1DC
:1003300092E00E94A20841E060E084E192E00E9425
:10034000240E6CE471E084E192E00E94A20840E097
:1003500060E084E192E00E94240E6DE571E084E1AA
:1003600092E00E94A20841E060E084E192E00E94F5
:10037000240E6DE671E084E192E00E94A2088BE910
:1003800092E00E94590D813409F0EBC040E060E03A
:1003900084E192E00E94240E6CE471E084E192E03A
:1003A0000E94A20841E060E084E192E00E94240EF5
:1003B0006CE471E084E192E00E94A20840E060E019
:1003C00084E192E00E94240E6EE771E084E192E005
:1003D0000E94A20841E060E084E192E00E94240EC5
:1003E0006DE671E084E192E00E94A2088BE992E060
:1003F0000E94590DC82F68EC70E08AEF91E00E94CE
:100400004A1020912D0330912E032F5F3F4F3093E0
:100410002E0320932D03C23409F09FC060E070E0EA
:100420008AEF91E00E944A1040E060E084E192E0AF
:100430000E94240E6CE471E084E192E00E94A20824
:1004400041E060E084E192E00E94240E6CE471E0FF
:1004500084E192E00E94A20840E060E084E192E042
:100460000E94240E60912D0370912E034AE050E00B
:1004700084E192E00E943E0940E068E084E192E07D
:100480000E94240E6DE871E084E192E00E94A208CF
:1004900060E777E180E090E00E94C00940E060E022
:1004A00084E192E00E94240E6CE471E084E192E029
:1004B0000E94A20841E060E084E192E00E94240EE4
:1004C0006CE471E084E192E00E94A20840E060E008
:1004D00084E192E00E94240E6DE571E084E192E0F7
:1004E0000E94A20841E060E084E192E00E94240EB4
:1004F0006DE671E084E192E00E94A20860E070E0A5
:100500008AEF91E00E944A108BE992E00E94590D17
:100510008434F9F460E070E08AEF91E00E944A10C0
:1005200040E060E084E192E00E94240E6CE471E01F
:1005300084E192E00E94A20841E060E084E192E060
:100540000E94240E6CE471E084E192E00E94A20813
:10055000B3CE813409F0BACF19CFC43409F046CFF5
:10056000D9CF843409F0F3CED5CF8A3209F098C3BD
:10057000CAE010920D0310920C0310920B0310921C
:100580000A0310922C0310922B0310923003109246
:100590002F0310922E0310922D0310922A03109213
:1005A0002903109228031092270310922603109219
:1005B0002503109224031092230310922203109219
:1005C00021031092200310921F0310921E03109219
:1005D0001D0310921C0310921B0310921A03109219
:1005E0001903109218031092170310921603109219
:1005F0001503109214031092130310921203109219
:1006000011031092100310920F0340E060E084E1A8
:1006100092E00E94240E6CE471E084E192E00E947A
:10062000A20841E060E084E192E00E94240E6CE4C4
:1006300071E084E192E00E94A20840E060E084E181
:1006400092E00E94240E63E971E084E192E00E944E
:10065000A20841E060E084E192E00E94240E63EA97
:1006600071E084E192E00E94A20860ED77E080E012
:1006700090E00E94C00940E060E084E192E00E94C6
:10068000240E6CE471E084E192E00E94A20841E053
:1006900060E084E192E00E94240E6CE471E084E169
:1006A00092E00E94A2088BE992E00E94590D2091ED
:1006B0002B0330912C03833409F0EEC0121613067D
:1006C0000CF0E6C040E060E084E192E00E94240E7D
:1006D0006CE471E084E192E00E94A20841E060E0F5
:1006E00084E192E00E94240E6CE471E084E192E0E7
:1006F0000E94A20840E060E084E192E00E94240EA3
:1007000060912D0370912E034AE050E084E192E065
:100710000E943E0940E068E084E192E00E94240EDD
:1007200062EB71E084E192E00E94A20841E060E0A7
:1007300084E192E00E94240E6DE671E084E192E093
:100740000E94A20868EC70E08AEF91E00E944A10D3
:1007500080912D0390912E03019690932E03809308
:100760002D0320912B0330912C0328173907A9F56D
:1007700040E060E084E192E00E94240E60912D034D
:1007800070912E034AE050E084E192E00E943E091D
:1007900040E068E084E192E00E94240E69EB71E0A1
:1007A00084E192E00E94A20841E060E084E192E0EE
:1007B0000E94240E6DE671E084E192E00E94A2089E
:1007C00060E070E08AEF91E00E944A108BE992E0CD
:1007D0000E94590D843461F69DCE8BE992E00E940F
:1007E000590D823409F050C040E060E084E192E0AD
:1007F0000E94240E6CE471E084E192E00E94A20861
:1008000041E060E084E192E00E94240E6CE471E03B
:1008100084E192E00E94A20860E070E08AEF91E03B
:100820000E944A1040E060E084E192E00E94240EC1
:1008300060912D0370912E034AE050E084E192E034
:100840000E943E0940E068E084E192E00E94240EAC
:1008500061EC71E084E192E00E94A20841E060E076
:1008600084E192E00E94240E6DE671E084E192E062
:100870000E94A2088BE992E00E94590D813409F48C
:1008800021CF843449F646CE843409F033CF42CEAA
:10089000232B09F46ECE03C0843409F43BCE8CE2E2
:1008A00092E00E94590D80930E0380538A3048F4E1
:1008B00080910A0390910B03019690930B03809310
:1008C0000A030E94AF0080910A0390910B038130CC
:1008D000910569F420912F033091300330932A035E
:1008E0002093290330931C0320931B03C9C082303B
:1008F0009105D1F420912F033091300330932803D8
:10090000209327036091290370912A03C69FA001B9
:10091000C79F500D112450931C0340931B03309329
:100920001A0320931903ACC08330910539F5209147
:100930002F033091300330932603209325036091D9
:10094000290370912A03D69FA001D79F500D11242F
:1009500050931C0340931B0360912703709128035D
:10096000C69FA001C79F500D112450931A034093B6
:1009700019033093180320931703DAC084309105CC
:10098000B1F580912F0390913003909324038093CD
:1009900023034091290350912A03409F9001419FD6
:1009A000300D509F300D112430931C0320931B03F6
:1009B0004091270350912803D49F9001D59F300D7B
:1009C000112430931A032093190340912503509169
:1009D0002603C49F9001C59F300D11243093180346
:1009E00020931703909316038093150306C1853057
:1009F000910509F045C080912F03909130039093A9
:100A00002203809321034091290350912A034E9D94
:100A100090014F9D300D5E9D300D112430931C03CD
:100A200020931B034091270350912803409F90017E
:100A3000419F300D509F300D112430931A032093A5
:100A400019034091250350912603D49F9001D59F0F
:100A5000300D112430931803209317034091230382
:100A600050912403C49F9001C59F300D11243093F1
:100A70001603209315039093140380931303BDC0B2
:100A80008630910509F054C080912F039091300376
:100A90009093200380931F034091290350912A03D0
:100AA0004C9D90014D9D300D5C9D300D1124309377
:100AB0001C0320931B0340912703509128034E9D54
:100AC00090014F9D300D5E9D300D112430931A031F
:100AD000209319034091250350912603409F9001D4
:100AE000419F300D509F300D1124309318032093F7
:100AF00017034091230350912403D49F9001D59F65
:100B0000300D1124309316032093150340912103D7
:100B100050912203C49F9001C59F300D1124309342
:100B2000140320931303909312038093110365C061
:100B3000079709F062C080912F0390913003909342
:100B40001E0380931D034091290350912A034A9D5F
:100B500090014B9D300D5A9D300D112430931C0394
:100B600020931B0340912703509128034C9D900133
:100B70004D9D300D5C9D300D112430931A03209350
:100B8000190340912503509126034E9D90014F9DDE
:100B9000300D5E9D300D1124309318032093170300
:100BA0004091230350912403409F9001419F300DB9
:100BB000509F300D1124309316032093150340915C
:100BC000210350912203D49F9001D59F300D112411
:100BD000309314032093130340911F03509120037B
:100BE000C49F9001C59F300D1124309312032093B0
:100BF00011039093100380930F0320911B033091F6
:100C00001C038091190390911A03820F931F209166
:100C1000170330911803820F931F20911503309111
:100C20001603820F931F2091130330911403820F38
:100C3000931F2091110330911203820F931F209173
:100C40000F0330911003820F931F90932C03809316
:100C50002B0360910C03615040E084E192E00E941C
:100C6000240E60912F03709130034AE050E084E13C
:100C700092E00E943E0940E068E084E192E00E9438
:100C8000240E6DE871E084E192E00E94A20841E048
:100C900060E084E192E00E94240E69EC71E0FFCCF8
:100CA000DF91CF911F910F91FF90EF90DF90CF9048
:100CB000BF90AF900895CF92EF92FF920F931F9342
:100CC00084E0E82E04E028E031E04CE051E060E20E
:100CD00071E08BE992E00E944D0A20E031E044E0AF
:100CE00051E060E171E08CE292E00E944D0A9FE0E9
:100CF000C92E2EE0E22E0DE02CE04AE06BE084E10C
:100D000092E00E94E40E33E1E32EF12C02E110E0C8
:100D100021E130E040E150E068EC70E08AEF91E0E2
:100D20000E940A0F1F910F91FF90EF90CF900895AE
:100D3000FC01918D228D892F90E0805C9F4F821B5A
:100D400091098F7399270895FC01918D828D9817D1
:100D500031F0828DE80FF11D858D90E008958FEFC1
:100D60009FEF0895FC01918D828D981761F0828D1F
:100D7000DF01A80FB11D5D968C91928D9F5F9F73CF
:100D8000928F90E008958FEF9FEF08958BE198E0A8
:100D9000892B49F080E090E0892B29F00E941B0804
:100DA00081110C9400000895FC01848DDF01A80FCF
:100DB000B11DA35ABF4F2C91848D90E001968F7383
:100DC0009927848FA689B7892C93A089B1898C91A2
:100DD00080648C93938D848D981306C00288F38968
:100DE000E02D80818F7D80830895CF93DF93EC0188
:100DF000888D8823C9F0EA89FB89808185FD05C03B
:100E0000A889B9898C9186FD0FC00FB607FCF5CF74
:100E1000808185FFF2CFA889B9898C9185FFEDCFBC
:100E2000CE010E94D406E7CFDF91CF910895EF92D3
:100E3000FF920F931F93CF93DF93EC0181E0888F94
:100E40009B8D8C8D981305C0E889F989808185FD7B
:100E500024C0F62E0B8D10E00F5F1F4F0F7311276C
:100E6000E02E8C8DE8120CC00FB607FCFACFE88993
:100E7000F989808185FFF5CFCE010E94D406F1CF9C
:100E80008B8DFE01E80FF11DE35AFF4FF0820B8FAF
:100E9000EA89FB898081806207C0EE89FF896083CF
:100EA000E889F98980818064808381E090E0DF9126
:100EB000CF911F910F91FF90EF900895CF92DF9205
:100EC000EF92FF921F93CF93DF93EC016A017B01B6
:100ED000122FE889F98982E080834115514E61051E
:100EE0007105B1F060E079E08DE390E0A701960133
:100EF0000E94AB11DA01C9010197A109B109B695A8
:100F0000A79597958795AC01411580E15807A8F002
:100F1000E889F989108260E874E88EE190E0A70121
:100F200096010E94AB11BA01A90141505109610912
:100F300071097695679557954795EC85FD855083A2
:100F4000EE85FF854083188EEC89FD891083EA8940
:100F5000FB89808180618083EA89FB898081886048
:100F60008083EA89FB89808180688083EA89FB89A4
:100F700080818F7D8083DF91CF911F91FF90EF90D3
:100F8000DF90CF9008951F920F920FB60F92112409
:100F90002F938F939F93EF93FF93E0914103F091F1
:100FA00042038081E0914703F091480382FD12C023
:100FB000908180914A038F5F8F7320914B0382173A
:100FC00051F0E0914A03F0E0EF5CFC4F958F809385
:100FD0004A0301C08081FF91EF919F918F912F91E2
:100FE0000F900FBE0F901F9018951F920F920FB683
:100FF0000F9211242F933F934F935F936F937F939F
:101000008F939F93AF93BF93EF93FF9381E393E00D
:101010000E94D406FF91EF91BF91AF919F918F9164
:101020007F916F915F914F913F912F910F900FBEE4
:101030000F901F90189581E393E00E94980621E09D
:10104000892B09F420E0822F0895E1E3F3E0138275
:10105000128288EE93E0A0E0B0E084839583A683BB
:10106000B7838CED91E09183808385EC90E0958748
:10107000848784EC90E09787868780EC90E0918B62
:10108000808B81EC90E0938B828B82EC90E0958B4F
:10109000848B86EC90E0978B868B118E128E138E4C
:1010A000148E089508950E94070A0E9452080E9413
:1010B0009700C6ECD6E00E9443012097E1F30E941E
:1010C000C606F9CFCF92DF92EF92FF920F931F9354
:1010D000CF93DF936C017A018B01C0E0D0E0CE1595
:1010E000DF0589F0D8016D918D01D601ED91FC915C
:1010F0000190F081E02DC6010995892B11F47E0144
:1011000002C02196ECCFC701DF91CF911F910F91C3
:10111000FF90EF90DF90CF9008956115710579F001
:10112000FB0101900020E9F73197AF01461B570BF7
:10113000DC01ED91FC910280F381E02D099480E0C7
:1011400090E008950C948D08DC01ED91FC910190E4
:10115000F081E02D09944F925F926F927F92EF920F
:10116000FF920F931F93CF93DF93CDB7DEB7A19775
:101170000FB6F894DEBF0FBECDBF7C01FA01CB01E4
:1011800019A2223008F42AE08E010F5D1F4F422E73
:10119000512C612C712CBF01A30192010E94AB1153
:1011A000F901CA01015011096A3014F4605D01C0EF
:1011B000695CD8016C93232B242B252B61F7B80194
:1011C000C7010E948D08A1960FB6F894DEBF0FBE2E
:1011D000CDBFDF91CF911F910F91FF90EF907F9046
:1011E0006F905F904F900895CF92DF92EF92FF92B1
:1011F0000F931F93CF93DF93EC016A017B012115BD
:10120000310579F4E881F9810190F081E02D642FB6
:10121000DF91CF911F910F91FF90EF90DF90CF90D2
:1012200009942A303105E9F477FF1AC06DE20E9473
:10123000A4088C0144275527BA014C195D096E0991
:101240007F092AE0CE010E94AB08800F911FDF9139
:10125000CF911F910F91FF90EF90DF90CF90089565
:101260002AE0B701A601CE01DF91CF911F910F9126
:10127000FF90EF90DF90CF900C94AB089A01AB01F8
:10128000770F660B770B0C94F4081F920F920FB632
:101290000F9211242F933F938F939F93AF93BF93FC
:1012A0008091CF039091D003A091D103B091D2034C
:1012B0003091CE0323E0230F2D3720F40196A11D9A
:1012C000B11D05C026E8230F0296A11DB11D209374
:1012D000CE038093CF039093D003A093D103B09318
:1012E000D2038091D3039091D403A091D503B09100
:1012F000D6030196A11DB11D8093D3039093D4030F
:10130000A093D503B093D603BF91AF919F918F91D6
:101310003F912F910F900FBE0F901F9018952FB7F0
:10132000F8946091CF037091D0038091D103909194
:10133000D2032FBF08953FB7F8948091D3039091C3
:10134000D403A091D503B091D60326B5A89B05C0C0
:101350002F3F19F00196A11DB11D3FBFBA2FA92F34
:10136000982F8827820F911DA11DB11DBC01CD01B1
:1013700042E0660F771F881F991F4A95D1F708959D
:101380008F929F92AF92BF92CF92DF92EF92FF9295
:101390006B017C010E949B094B015C01C114D104CB
:1013A000E104F10401F10E94D2100E949B09DC01CA
:1013B000CB0188199909AA09BB09883E9340A10568
:1013C000B10560F321E0C21AD108E108F10888EE06
:1013D000880E83E0981EA11CB11CC114D104E10445
:1013E000F10419F7DBCFFF90EF90DF90CF90BF9023
:1013F000AF909F908F9008958230910538F0880FBC
:10140000991F880F991F05970197F1F70895789410
:1014100084B5826084BD84B5816084BD85B58260F9
:1014200085BD85B5816085BDEEE6F0E08081816097
:101430008083E1E8F0E01082808182608083808197
:1014400081608083E0E8F0E0808181608083E1EB6F
:10145000F0E0808184608083E0EBF0E08081816057
:101460008083EAE7F0E0808184608083808182600D
:1014700080838081816080838081806880831092F6
:10148000C1000895862F0C946811862F642F0C9448
:101490003811862F642F0C94FC104F925F926F923C
:1014A0007F928F929F92AF92BF92CF92DF92EF92F4
:1014B0000F93CF93DF93EC015B013A014901029650
:1014C0000E9491118CEE91E0998388836E018CE1EA
:1014D000C80ED11C2E0188E5480E511CC6010E9481
:1014E000911186E0C80ED11CC414D504B9F7FE01D1
:1014F000EE59FF4F718260823296918280823296DD
:1015000000833196E0823797B182A08238968AE0D4
:1015100090E091838083329684EF91E09183808381
:101520003396118210827197108211821282138277
:10153000C459DF4F1882DF91CF910F91EF90DF9068
:10154000CF90BF90AF909F908F907F906F905F9063
:101550004F9008952F923F924F925F926F927F9299
:101560008F929F92AF92BF92CF92DF92EF92FF92B3
:101570000F931F93CF93DF93CDB7DEB728970FB6A6
:10158000F894DEBF0FBECDBF98878F8310E04C016B
:1015900086E6880E911CEF80F88492E6E90EF11C35
:1015A000D4018C911817A0F4AF81B8858D919C91CE
:1015B000F701A081B181A10FB11DFC012081318112
:1015C00042E06C918F819885F90109951F5FE8CF02
:1015D000F12CEF81F885E959FF4FFA83E983CF8039
:1015E000D884F4E6CF0ED11C412C512C3201439407
:1015F0008F8198858E599F4F9C838B83E981FA81D7
:101600008081F81608F088C0AF2CB12CAF81B88566
:101610008D919C91F601A081B181AA0DBB1DFC01A9
:101620002081318141E06C918F819885F901099584
:10163000AF81B8858D919C91F601A081B181AA0DF1
:10164000BB1DFC012281338140E06C918F81988524
:10165000F9010995D301C2010F2C04C0880F991F0D
:10166000AA1FBB1F0A94D2F79C011C01209430943E
:10167000E12CF4018081AF81B885ED91FC91E816F1
:1016800048F50E2D10E0AB81BC818D919C91DC0161
:10169000A00FB11F0480F581E02D6C918F8198859A
:1016A0002D833E830995000F111F2D813E81EF810F
:1016B000F885E00FF11F892B29F480859185822B15
:1016C000932B04C080859185822193219187808707
:1016D000E394CFCFD6018D919C91DC01AA0DBB1D67
:1016E0000280F381E02D41E06C918F81988509950E
:1016F000AF81B885ED91FC91D6018D919C91DC0173
:10170000AA0DBB1D0190F081E02D40E06C918F810E
:1017100098850995F39472CF28960FB6F894DEBF9A
:101720000FBECDBFDF91CF911F910F91FF90EF9032
:10173000DF90CF90BF90AF909F908F907F906F90F1
:101740005F904F903F902F900895FC0180E090E0D3
:10175000258D368D2617370739F0019636968A3053
:101760009105B1F78FEF9FEF0895DC0126E0629FAE
:10177000A00DB11D112490965C934E935F9721E0CC
:1017800091962C939197FC01E459FF4F208131965B
:101790000190F081E02D222331F0309749F0611162
:1017A00007C0DC0102C0309719F05C968C91099457
:1017B00008956F927F928F929F92AF92BF92CF9235
:1017C000DF92EF92FF921F93CF93DF931F92CDB7DB
:1017D000DEB73C01162FFC0186E0689FE00DF11D8D
:1017E000112411A2878D90A181309105F9F01CF48C
:1017F000892B51F04FC082309105B1F1039709F068
:1018000049C040E050E034C0442309F443C041E003
:1018100050E0C3010E94B50B0E948F09F301E85A02
:10182000FF4F608371838283938334C049830E9416
:101830008F09F301E85AFF4FC080D180E280F38026
:101840004B015C018C189D08AE08BF087296808120
:101850009181A0E0B0E0498188159905AA05BB05F2
:1018600018F442E050E004C0411114C043E050E0DD
:10187000612FC3010F90DF91CF911F91FF90EF90E7
:10188000DF90CF90BF90AF909F908F907F906F90A0
:101890000C94B50B0F90DF91CF911F91FF90EF90BB
:1018A000DF90CF90BF90AF909F908F907F906F9080
:1018B00008952F923F924F925F926F927F928F92F4
:1018C0009F92AF92BF92CF92DF92EF92FF920F93CF
:1018D0001F93CF93DF9300D01F92CDB7DEB79B83CA
:1018E0008A836C012CE1C20ED11C885A9F4FF601ED
:1018F0002FEF3FEF43815481452B21F41082328337
:10190000218315823696E817F907A1F7312C4A8012
:101910005B8036E6430E511CAA80BB8087E6A80E8A
:10192000B11C8A809B80A0E68A0E911CF201808106
:10193000381608F05CC0212C8A819B81830D911D93
:10194000830D911D9C01285F3F4F7901D5016C905B
:10195000261408F04AC0F70100811181022C02C050
:10196000169507950A94E2F701701127369C30010D
:101970001124620C711CD401ED91FC91E60DF71D50
:101980002081B3018A819B8129830E94A50B298133
:1019900097FD04C0402F4170682F1AC0019619F5B9
:1019A000012B09F1F60160E070E08081811115C022
:1019B000E6E0E69FC001E79F900D1124EA81FB81DC
:1019C000E80FF91F248F768E658E10A2178E41E0E6
:1019D0008A819B810E94D90B06C06F5F7F4F36962C
:1019E0006A30710511F72394B1CF33949FCFEA8108
:1019F000FB81B1962A813B81235A3F4F80E0908141
:101A0000911181E03696E217F307C9F70F900F9016
:101A10000F90DF91CF911F910F91FF90EF90DF908A
:101A2000CF90BF90AF909F908F907F906F905F907E
:101A30004F903F902F900895CF92DF92EF92FF92B8
:101A40000F931F93CF93DF93EC010E948F098E01B8
:101A5000045A1F4FF801C080D180E280F380AB01AF
:101A6000BC014C195D096E097F093C96808191810A
:101A7000A0E0B0E084179507A607B70778F4CE0179
:101A80000E94AA0ACE010E94590CC82F0E948F09F9
:101A9000F801608371838283938301C0C0E08C2F3F
:101AA000DF91CF911F910F91FF90EF90DF90CF903A
:101AB00008950F931F93CF93DF93EC018C0104598A
:101AC0001F4F81E0F8018083CE010E941C0D882306
:101AD00049F089A1882331F08F8D98A1019711F4E5
:101AE0008C8D03C0F801108280E0DF91CF911F91AF
:101AF0000F910895CF93DF93EC0160E08E810E94F7
:101B0000381181E090E00E94FC0961E08E810E9422
:101B1000381181E090E00E94FC0960E08E810E9413
:101B2000381184E690E0DF91CF910C94FC09CF92BC
:101B3000DF92EF92FF920F931F93CF93DF937C017D
:101B40006C0187E0C80ED11CC0E0D0E0062F10E089
:101B5000B8010C2E02C0759567950A94E2F7617082
:101B6000F60181916F010E9438112196C430D10590
:101B700079F7C701DF91CF911F910F91FF90EF90FF
:101B8000DF90CF900C947A0DCF92DF92EF92FF927C
:101B90000F931F93CF93DF937C016C0187E0C80EF6
:101BA000D11CC0E0D0E0062F10E0B8010C2E02C01E
:101BB000759567950A94E2F76170F60181916F015E
:101BC0000E9438112196C830D10579F7C701DF91FD
:101BD000CF911F910F91FF90EF90DF90CF900C94D9
:101BE0007A0D1F93CF93DF93EC01162F642F8C8116
:101BF0000E9438118D818F3F19F060E00E943811EA
:101C00008F85612F84FF06C0CE01DF91CF911F9198
:101C10000C94C40D70E084E0759567958A95E1F7A2
:101C2000CE010E94970D612FCE01DF91CF911F91C0
:101C30000C94970D40E00C94F10D61E00E941A0E97
:101C400080ED97E00C94FC09FC01443008F043E07F
:101C50008389481710F04FEF480FDF01A40FB11D23
:101C600054969C91690F6068CF010C941A0EFC0188
:101C70006089262F2460208B6C600C941A0EEF92E2
:101C8000FF920F931F93CF93DF93EC01423018F034
:101C90008F8588608F874B8B1C8A80E48D8B6E8B41
:101CA00070E0605C7F4F6F8B222329F0413019F484
:101CB0008F8584608F8761E08C810E94FC108D810C
:101CC0008F3F19F061E00E94FC1061E08E810E945C
:101CD000FC107E0187E0E80EF11C00E010E08F852B
:101CE00084FD03C084E090E002C088E090E0081723
:101CF00019074CF461E0F70181917F010E94FC100B
:101D00000F5F1F4FECCF80E593EC0E94FC0960E071
:101D10008C810E94381160E08E810E9438118D8183
:101D20008F3F19F060E00E9438116F8564FD1DC07F
:101D300063E0CE010E94970D84E991E10E94FC09C5
:101D400063E0CE010E94970D84E991E10E94FC09B5
:101D500063E0CE010E94970D86E990E00E94FC09A5
:101D600062E0CE010E94970D16C06062CE010E9413
:101D70001A0E84E991E10E94FC096F856062CE0130
:101D80000E941A0E86E990E00E94FC096F8560624D
:101D9000CE010E941A0E6F856062CE010E941A0E5B
:101DA00084E0888BCE010E94370ECE010E941D0E6A
:101DB00082E0898B66E0CE01DF91CF911F910F9178
:101DC000FF90EF900C941A0ECF92EF920F93FC01BC
:101DD0001382128286EF91E09183808364838FEF78
:101DE0008583468327830087E186C286138614860F
:101DF00015861686178620E041E060E1CF010F913D
:101E0000EF90CF900C943F0E41E00E94F10D81E0E5
:101E100090E00895EF92FF920F931F93CF93DF937B
:101E2000EC01842F1B861A86198218821E8A1F8A4B
:101E3000188E198E7F836E834C875D873F872E8730
:101E4000198B088BFB8AEA8A61E00E94FC1061E032
:101E50008E850E94FC1061E088890E94FC1061E080
:101E60008A890E94FC101D8A1C8A84E090E0998770
:101E70008887DF91CF911F910F91FF90EF90089588
:101E8000CF92DF92EF92FF920F931F93CF93DF9346
:101E9000EC016A017B010E811F819801110F440B37
:101EA000550B60E077E883E993E00E94CD11CA0109
:101EB000B901A70196010E94CD112A833B834C836F
:101EC0005D83DF91CF911F910F91FF90EF90DF9095
:101ED000CF9008950F931F93CF93DF93EC018B0165
:101EE000888599850297F1F46130710569F024F4D1
:101EF000672BC1F460E009C06230710559F06330AE
:101F0000710581F460E007C061E08C850E943811A2
:101F100061E005C061E08C850E94381160E08E852B
:101F20000E943811888599850497B9F5013011050B
:101F3000B1F04CF40115110581F561E08C850E942A
:101F4000381160E011C002301105B9F003301105FD
:101F500021F561E08C850E94381160E013C060E0DB
:101F60008C850E94381161E08E850E94381161E0F5
:101F700088890E94381160E00DC060E08C850E9465
:101F8000381161E08E850E94381160E088890E94D6
:101F9000381161E08A890E943811888599850597F2
:101FA00009F073C00A30110508F06FC0F801EC5C4D
:101FB000FF4F0C94EC1160E08C850E94381161E0B9
:101FC00051C060E08C850E94381161E08E850E94CE
:101FD000381160E04BC060E08C850E94381161E0F0
:101FE0008E850E94381160E088890E94381161E076
:101FF00041C060E001C061E08C850E94381161E061
:1020000005C061E08C850E94381160E08E850E94D9
:10201000381160E009C061E08C850E94381160E0F1
:102020008E850E94381161E088890E94381161E034
:102030000DC061E08C850E94381160E08E850E94A1
:10204000381161E088890E94381160E08A890E9415
:10205000381160E013C061E001C060E08C850E942F
:10206000381160E08E850E94381161E088890E94F5
:10207000381160E08A890E94381161E08C89DF9113
:10208000CF911F910F910C943811DF91CF911F9137
:102090000F9108954F925F926F927F928F929F92CD
:1020A000AF92BF92CF92DF92EF92FF920F931F9366
:1020B000CF93DF93EC018B0177FF04C0002711273A
:1020C000061B170B161617062CF481E090E0998377
:1020D000888304C0672B11F01982188284E0E82EEF
:1020E000F12C9AE0C92ED12C0115110509F449C033
:1020F0000E949B098E889F88A88CB98C2B013C017B
:10210000481859086A087B088A809B80AC80BD808B
:10211000481459046A047B0438F36E8B7F8B888FD4
:10212000998F288139818A859B852130310559F421
:1021300001969B878A872E813F818217930771F4CE
:102140001B861A860BC0892B21F48E819F819B8769
:102150008A878A859B8501979B878A870150110909
:10216000288539858A859B852530310511F4B6018E
:1021700001C0B7010E949711BC01CE010E946A0FF5
:10218000B3CFDF91CF911F910F91FF90EF90DF9030
:10219000CF90BF90AF909F908F907F906F905F9007
:1021A0004F9008950895833081F028F4813099F09C
:1021B0008230A1F008958730A9F08830B9F08430DA
:1021C000D1F4809180008F7D03C0809180008F7753
:1021D00080938000089584B58F7702C084B58F7D89
:1021E00084BD08958091B0008F7703C08091B000C6
:1021F0008F7D8093B0000895CF93DF9390E0FC0132
:10220000E057FF4F2491FC01EC55FF4F8491882348
:1022100061F190E0880F991FFC01E453FF4FC591D5
:10222000D491FC01EE53FF4FA591B491611109C007
:102230009FB7F8948881209582238883EC912E2380
:102240000BC0623061F49FB7F8943881822F80957B
:1022500083238883EC912E2B2C939FBF06C08FB7CE
:10226000F894E8812E2B28838FBFDF91CF910895BA
:102270001F93CF93DF93282F30E0F901E458FF4FED
:102280008491F901E057FF4FD491F901EC55FF4FCC
:10229000C491CC23C9F0162F81110E94D310EC2FCA
:1022A000F0E0EE0FFF1FEE53FF4FA591B4918FB7F3
:1022B000F894111105C09C91ED2FE095E92302C01F
:1022C000EC91ED2BEC938FBFDF91CF911F9108958F
:1022D000CF93DF93282F30E0F901E458FF4F84912A
:1022E000F901E057FF4FD491F901EC55FF4FC4912C
:1022F000CC2391F081110E94D310EC2FF0E0EE0F6F
:10230000FF1FE854FF4FA591B491EC91ED2381E0BC
:1023100090E021F480E002C080E090E0DF91CF9176
:102320000895FC011082148213821582089597FB90
:10233000072E16F4009407D077FD09D00E94F21101
:1023400007FC05D03EF4909581959F4F08957095B8
:1023500061957F4F0895A1E21A2EAA1BBB1BFD01B8
:102360000DC0AA1FBB1FEE1FFF1FA217B307E40774
:10237000F50720F0A21BB30BE40BF50B661F771FCC
:10238000881F991F1A9469F76095709580959095AC
:102390009B01AC01BD01CF010895052E97FB1EF4F2
:1023A00000940E94E41157FD07D00E94AB1107FC76
:1023B00003D04EF40C94E41150954095309521953E
:1023C0003F4F4F4F5F4F0895909580957095619561
:1023D0007F4F8F4F9F4F0895EE0FFF1F0590F49191
:1023E000E02D0994AA1BBB1B51E107C0AA1FBB1F0C
:1023F000A617B70710F0A61BB70B881F991F5A9591
:10240000A9F780959095BC01CD010895F894FFCF70
:102410000504030209080706050403020908070664
:102420003132334134353642373839432A30234448
:102430003132334134353642373839432A30234438
:102440004D2E4620636F6E74726F6C00233A467295
:102450006565202F202A3A4175746F0020202020C6
:1024600020202020202020202020202000546F2009
:10247000537461727420507573683A41004D6169FC
:102480006E204D656E7520507573683A4400546F28
:102490002073746F7020507573683A4200726F6CCD
:1024A0006C7300656E746572207468652076616C6B
:1024B00075650020207468656E20707573683A43F6
:1024C0002000423A73746F700046696E7368202072
:1024D00000413A52554E20200020746F2052756EF4
:1024E00020507573683A4300000000001707620827
:1024F0009806B206A406F50600000000490A450A3F
:0A250000420A00000000040F620808
:00000001FF
