:100000000C946D000C9495000C9495000C94950044
:100010000C9495000C9495000C9495000C9495000C
:100020000C9495000C9495000C9495000C949500FC
:100030000C9495000C9495000C9495000C949500EC
:100040000C94770B0C9495000C94F5090C94270AEA
:100050000C9495000C9495000C9495000C949500CC
:100060000C9495000C9495000D1213121D122B1276
:100070002D1233123D124B125D125F120000000868
:10008000000201000003040700000000000000005F
:10009000010204081020408001020408102001021F
:1000A00004081020040404040404040402020202EC
:1000B00002020303030303030000000023002600E1
:1000C000290000000000250028002B00000000008F
:1000D000240027002A00BD08570A11241FBECFEFB5
:1000E000D8E0DEBFCDBF11E0A0E0B1E0E4E7F8E288
:1000F00002C005900D92AA3FB107D9F723E0AAEFFD
:10010000B1E001C01D92A73DB207E1F710E0CDE6D6
:10011000D0E004C02197FE010E941E14CB36D10707
:10012000C9F70E94850A0C9438140C940000CF93F0
:10013000DF9300D000D000D0CDB7DEB79A8389839B
:100140004B835C836D837E838B819C81AD81BE817B
:10015000E981FA8126E0AC01BD01CF010E9490093E
:1001600026960FB6F894DEBF0FBECDBFDF91CF91BC
:100170000895CF93DF93CDB7DEB720E042E060E192
:100180008FEF92E00E94711044EB50E060E070E06D
:1001900087E193E00E94721140E855E260E070E070
:1001A00081E393E00E949700DF91CF910895CF9370
:1001B000DF93CDB7DEB728970FB6F894DEBF0FBE3A
:1001C000CDBF10921E0210921D02109220021092BA
:1001D0001F021092FF011092FE011092FB0110927B
:1001E000FA011092FD011092FC0140E062E08FEFF5
:1001F00092E00E94561060E371E08FEF92E00E945F
:10020000D40A41E061E08FEF92E00E9456106CE367
:1002100071E08FEF92E00E94D40A81E292E00E94A6
:100220008B0F89838981833209F09AC140E060E0B5
:100230008FEF92E00E9456106CE471E08FEF92E035
:100240000E94D40A41E060E08FEF92E00E945610D5
:100250006CE471E08FEF92E00E94D40A40E060E02D
:100260008FEF92E00E9456106DE571E08FEF92E003
:100270000E94D40A41E060E08FEF92E00E945610A5
:100280006DE671E08FEF92E00E94D40A81E292E085
:100290000E948B0F8A838A81813409F03EC140E03D
:1002A00060E08FEF92E00E9456106CE471E08FEFF7
:1002B00092E00E94D40A41E060E08FEF92E00E9459
:1002C00056106CE471E08FEF92E00E94D40A40E097
:1002D00060E08FEF92E00E9456106EE771E08FEFC2
:1002E00092E00E94D40A41E060E08FEF92E00E9429
:1002F00056106DE671E08FEF92E00E94D40A81E221
:1003000092E00E948B0F8B8368EC70E087E193E0B2
:100310000E947C128091FC019091FD0101969093C6
:10032000FD018093FC018B81823409F0D3C060E031
:1003300070E087E193E00E947C1240E060E08FEF84
:1003400092E00E9456106CE471E08FEF92E00E9400
:10035000D40A41E060E08FEF92E00E9456106CE416
:1003600071E08FEF92E00E94D40A40E060E08FEFEE
:1003700092E00E9456108091FC019091FD014AE0AC
:1003800050E0BC018FEF92E00E94700B40E068E00B
:100390008FEF92E00E9456106DE871E08FEF92E0CF
:1003A0000E94D40A60E777E180E090E00E94F20BBF
:1003B00040E060E08FEF92E00E9456106CE471E044
:1003C0008FEF92E00E94D40A41E060E08FEF92E06C
:1003D0000E9456106CE471E08FEF92E00E94D40A04
:1003E00040E060E08FEF92E00E9456106DE571E012
:1003F0008FEF92E00E94D40A41E060E08FEF92E03C
:100400000E9456106DE671E08FEF92E00E94D40AD0
:1004100060E070E087E193E00E947C1281E292E06C
:100420000E948B0F8C838C818434F9F460E070E03F
:1004300087E193E00E947C1240E060E08FEF92E061
:100440000E9456106CE471E08FEF92E00E94D40A93
:1004500041E060E08FEF92E00E9456106CE471E0A2
:100460008FEF92E00E94D40AACCE8C81813489F562
:1004700040E060E08FEF92E00E9456106CE471E083
:100480008FEF92E00E94D40A41E060E08FEF92E0AB
:100490000E9456106CE471E08FEF92E00E94D40A43
:1004A00040E060E08FEF92E00E9456106EE771E04E
:1004B0008FEF92E00E94D40A41E060E08FEF92E07B
:1004C0000E9456106DE671E08FEF92E00E94D40A10
:1004D00016CF86CF8B818434F9F460E070E087E139
:1004E00093E00E947C1240E060E08FEF92E00E9477
:1004F00056106CE471E08FEF92E00E94D40A41E064
:1005000060E08FEF92E00E9456106CE471E08FEF94
:1005100092E00E94D40A55CEF2CE8A818434F9F456
:1005200060E070E087E193E00E947C1240E060E0D0
:100530008FEF92E00E9456106CE471E08FEF92E032
:100540000E94D40A41E060E08FEF92E00E945610D2
:100550006CE471E08FEF92E00E94D40A32CE7ECE3E
:1005600089818A3209F0DCC410921E0210921D02A9
:100570001092200210921F021092FF011092FE01B1
:100580001092FB011092FA011092FD011092FC01F1
:1005900010920102109200021092030210920202C5
:1005A00010920502109204021092070210920602A5
:1005B000109209021092080210920B0210920A0285
:1005C00010920D0210920C0210920F0210920E0265
:1005D0001092110210921002109213021092120245
:1005E0001092150210921402109217021092160225
:1005F000109219021092180210921B0210921A0205
:1006000040E060E08FEF92E00E9456106CE471E0F1
:100610008FEF92E00E94D40A41E060E08FEF92E019
:100620000E9456106CE471E08FEF92E00E94D40AB1
:1006300040E060E08FEF92E00E94561063E971E0C5
:100640008FEF92E00E94D40A41E060E08FEF92E0E9
:100650000E94561063EA71E08FEF92E00E94D40A84
:1006600060ED77E080E090E00E94F20B40E060E017
:100670008FEF92E00E9456106CE471E08FEF92E0F1
:100680000E94D40A41E060E08FEF92E00E94561091
:100690006CE471E08FEF92E00E94D40A81E292E074
:1006A0000E948B0F8D838091FE019091FF0121E0CC
:1006B000181619060CF020E081E09D81933409F0B2
:1006C00080E08223882309F46AC140E060E08FEF74
:1006D00092E00E9456106CE471E08FEF92E00E946D
:1006E000D40A41E060E08FEF92E00E9456106CE483
:1006F00071E08FEF92E00E94D40A40E060E08FEF5B
:1007000092E00E9456108091FC019091FD014AE018
:1007100050E0BC018FEF92E00E94700B40E068E077
:100720008FEF92E00E94561062EB71E08FEF92E043
:100730000E94D40A41E060E08FEF92E00E945610E0
:100740006DE671E08FEF92E00E94D40A68EC70E0F1
:1007500087E193E00E947C128091FC019091FD0161
:1007600001969093FD018093FC012091FE01309150
:10077000FF018091FC019091FD012817390709F0D4
:1007800057C040E060E08FEF92E00E9456108091E9
:10079000FC019091FD014AE050E0BC018FEF92E036
:1007A0000E94700B40E068E08FEF92E00E945610CC
:1007B00069EB71E08FEF92E00E94D40A41E060E0C3
:1007C0008FEF92E00E9456106DE671E08FEF92E09D
:1007D0000E94D40A60E070E087E193E00E947C12FE
:1007E00081E292E00E948B0F888788858434F9F437
:1007F00060E070E087E193E00E947C1240E060E0FE
:100800008FEF92E00E9456106CE471E08FEF92E05F
:100810000E94D40A41E060E08FEF92E00E945610FF
:100820006CE471E08FEF92E00E94D40ACACCA9CFA9
:1008300081E292E00E948B0F8E838E81823409F0D8
:100840008BC040E060E08FEF92E00E9456106CE4B5
:1008500071E08FEF92E00E94D40A41E060E08FEFF8
:1008600092E00E9456106CE471E08FEF92E00E94DB
:10087000D40A60E070E087E193E00E947C1240E0DF
:1008800060E08FEF92E00E9456108091FC01909101
:10089000FD014AE050E0BC018FEF92E00E94700B36
:1008A00040E068E08FEF92E00E94561061EC71E04A
:1008B0008FEF92E00E94D40A41E060E08FEF92E077
:1008C0000E9456106DE671E08FEF92E00E94D40A0C
:1008D00081E292E00E948B0F8F838F818134C9F473
:1008E00040E060E08FEF92E00E9456106CE471E00F
:1008F0008FEF92E00E94D40A41E060E08FEF92E037
:100900000E9456106CE471E08FEF92E00E94D40ACE
:10091000F4CE8F818434F9F460E070E087E193E0F5
:100920000E947C1240E060E08FEF92E00E9456103F
:100930006CE471E08FEF92E00E94D40A41E060E045
:100940008FEF92E00E9456106CE471E08FEF92E01E
:100950000E94D40A36CC8DCF8E818434F9F460E0C5
:1009600070E087E193E00E947C1240E060E08FEF4E
:1009700092E00E9456106CE471E08FEF92E00E94CA
:10098000D40A41E060E08FEF92E00E9456106CE4E0
:1009900071E08FEF92E00E94D40A13CCAECE80912A
:1009A000FE019091FF0121E0892B09F020E081E018
:1009B0009D81933409F080E08223882309F0D4CD0F
:1009C0008D818434F9F460E070E087E193E00E9467
:1009D0007C1240E060E08FEF92E00E9456106CE4E1
:1009E00071E08FEF92E00E94D40A41E060E08FEF67
:1009F00092E00E9456106CE471E08FEF92E00E944A
:100A0000D40ADFCB80E992E00E948B0F80931C0216
:100A100080911C02803321F180911C02813301F10D
:100A200080911C028233E1F080911C028333C1F07B
:100A300080911C028433A1F080911C02853381F0E7
:100A400080911C02863361F080911C02873341F053
:100A500080911C02883321F080911C02893349F473
:100A600080911F0290912002019690932002809322
:100A70001F020E94990780911F0290912002019706
:100A800081F48091FA019091FB019093010280938F
:100A90000002809100029091010290930F028093D6
:100AA0000E0280911F0290912002029709F5809119
:100AB000FA019091FB0190930302809302028091CE
:100AC000000290910102880F991F9C01220F331F91
:100AD000220F331F820F931F90930F0280930E02F9
:100AE0008091020290910302909311028093100270
:100AF00080911F0290912002039779F58091FA016D
:100B00009091FB01909305028093040220910002D2
:100B10003091010244E6429FC001439F900D112491
:100B200090930F0280930E02809102029091030233
:100B3000880F991F9C01220F331F220F331F820F32
:100B4000931F909311028093100280910402909160
:100B50000502909313028093120280911F029091DC
:100B60002002049709F040C08091FA019091FB01A6
:100B70009093070280930602409100025091010277
:100B800028EE33E0429FC001439F900D529F900D8D
:100B9000112490930F0280930E0220910202309153
:100BA000030244E6429FC001439F900D112490939D
:100BB0001102809310028091040290910502880F27
:100BC000991F9C01220F331F220F331F820F931F87
:100BD0009093130280931202809106029091070273
:100BE000909315028093140280911F02909120022D
:100BF000059709F051C08091FA019091FB01909303
:100C0000090280930802409100025091010220E104
:100C100037E2429FC001439F900D529F900D1124D7
:100C200090930F0280930E024091020250910302B2
:100C300028EE33E0429FC001439F900D529F900DDC
:100C4000112490931102809310022091040230919C
:100C5000050244E6429FC001439F900D11249093EA
:100C60001302809312028091060290910702880F6E
:100C7000991F9C01220F331F220F331F820F931FD6
:100C800090931502809314028091080290910902BA
:100C9000909317028093160280911F029091200278
:100CA000069709F064C08091FA019091FB0190933E
:100CB0000B0280930A028091000290910102AC0124
:100CC00080EA96E8489F9001499F300D589F300D6B
:100CD0001124C90190930F0280930E0240910202E9
:100CE0005091030220E137E2429FC001439F900DE3
:100CF000529F900D11249093110280931002409105
:100D000004025091050228EE33E0429FC001439F48
:100D1000900D529F900D1124909313028093120214
:100D2000209106023091070244E6429FC001439F92
:100D3000900D112490931502809314028091080263
:100D400090910902880F991F9C01220F331F220FD7
:100D5000331F820F931F9093170280931602809186
:100D60000A0290910B0290931902809318028091CD
:100D70001F0290912002079709F077C08091FA0135
:100D80009091FB0190930D0280930C0280910002E0
:100D900090910102AC0180E492E4489F9001499F48
:100DA000300D589F300D1124C90190930F0280938C
:100DB0000E028091020290910302AC0180EA96E853
:100DC000489F9001499F300D589F300D1124C90153
:100DD00090931102809310024091040250910502F9
:100DE00020E137E2429FC001439F900D529F900D3A
:100DF00011249093130280931202409106025091A5
:100E0000070228EE33E0429FC001439F900D529F9E
:100E1000900D1124909315028093140220910802E2
:100E20003091090244E6429FC001439F900D112476
:100E3000909317028093160280910A0290910B0200
:100E4000880F991F9C01220F331F220F331F820F1F
:100E5000931F909319028093180280910C02909135
:100E60000D0290931B0280931A0220910E02309182
:100E70000F028091100290911102280F391F80916A
:100E8000120290911302280F391F80911402909141
:100E90001502280F391F8091160290911702280F12
:100EA000391F8091180290911902280F391F8091E3
:100EB0001A0290911B02820F931F9093FF0180935F
:100EC000FE0180911D0290911E02815040E0682F2A
:100ED0008FEF92E00E9456108091FA019091FB01F1
:100EE0004AE050E0BC018FEF92E00E94700B40E0BE
:100EF00068E08FEF92E00E9456106DE871E08FEF8E
:100F000092E00E94D40A41E060E08FEF92E00E94FC
:100F1000561069EC71E08FEF92E00E94D40ABECBCC
:100F200028960FB6F894DEBF0FBECDBFDF91CF91EC
:100F30000895CF93DF93CDB7DEB780911C02813344
:100F400079F480911D0290911E02019690931E02E9
:100F500080931D0281E090E09093FB018093FA0161
:100F600080911C02823379F480911D0290911E02BF
:100F7000019690931E0280931D0282E090E0909370
:100F8000FB018093FA0180911C02833379F48091F4
:100F90001D0290911E02019690931E0280931D02E5
:100FA00083E090E09093FB018093FA0180911C0212
:100FB000843379F480911D0290911E0201969093E2
:100FC0001E0280931D0284E090E09093FB018093C9
:100FD000FA0180911C02853379F480911D02909171
:100FE0001E02019690931E0280931D0285E090E000
:100FF0009093FB018093FA0180911C02863379F46F
:1010000080911D0290911E02019690931E02809382
:101010001D0286E090E09093FB018093FA0180919D
:101020001C02873379F480911D0290911E02019673
:1010300090931E0280931D0287E090E09093FB0145
:101040008093FA0180911C02883379F480911D020B
:1010500090911E02019690931E0280931D0288E0DB
:1010600090E09093FB018093FA0180911C028933F8
:1010700079F480911D0290911E02019690931E02B8
:1010800080931D0289E090E09093FB018093FA0128
:1010900080911C02803369F480911D0290911E02A0
:1010A000019690931E0280931D021092FB011092F4
:1010B000FA01DF91CF910895CF92EF92FF920F93B3
:1010C0001F93CF93DF9300D000D0CDB7DEB79A83C4
:1010D00089837C836B8389819A81019709F041C060
:1010E0008B819C810196E9F56894EE24E2F804E096
:1010F00024E231E040E251E060E071E081E292E020
:101100000E947F0C6894EE24E2F804E02CE231E0C7
:1011100048E251E060E171E080E992E00E947F0CDA
:101120000F2EFFE0CF2EF02D0F2EFEE0EF2EF02D34
:101130000DE02CE04AE06BE08FEF92E00E94161188
:101140000F2EF3E1EF2EF12CF02D02E110E021E162
:1011500030E040E150E068EC70E087E193E00E940D
:101160003C110F900F900F900F90DF91CF911F9136
:101170000F91FF90EF90CF900895CF93DF93CDB76D
:10118000DEB76FEF7FEF81E090E00E945C08DF91B7
:10119000CF910895FC01918D228D892F90E0805C84
:1011A0009F4F821B91098F7399270895FC01918DA0
:1011B000828D981731F0828DE80FF11D858D90E0BA
:1011C00008958FEF9FEF0895FC01918D828D981700
:1011D00061F0828DDF01A80FB11D5D968C91928D1B
:1011E0009F5F9F73928F90E008958FEF9FEF089518
:1011F0008DE49AE0892B49F080E090E0892B29F07A
:101200000E944D0A81110C9400000895FC01848D08
:10121000DF01A80FB11DA35ABF4F2C91848D90E020
:1012200001968F739927848FA689B7892C93A089FB
:10123000B1898C9180648C93938D848D981306C0B2
:101240000288F389E02D80818F7D80830895CF937C
:10125000DF93EC01888D8823C9F0EA89FB898081BE
:1012600085FD05C0A889B9898C9186FD0FC00FB690
:1012700007FCF5CF808185FFF2CFA889B9898C91D1
:1012800085FFEDCFCE010E940609E7CFDF91CF9118
:101290000895EF92FF920F931F93CF93DF93EC018A
:1012A00081E0888F9B8D8C8D981305C0E889F98922
:1012B000808185FD24C0F62E0B8D10E00F5F1F4F3F
:1012C0000F731127E02E8C8DE8120CC00FB607FCAF
:1012D000FACFE889F989808185FFF5CFCE010E9498
:1012E0000609F1CF8B8DFE01E80FF11DE35AFF4F88
:1012F000F0820B8FEA89FB898081806207C0EE89CA
:10130000FF896083E889F98980818064808381E036
:1013100090E0DF91CF911F910F91FF90EF90089592
:10132000CF92DF92EF92FF921F93CF93DF93EC0166
:101330006A017B01122FE889F98982E080834115D7
:10134000514E61057105B1F060E079E08DE390E008
:10135000A70196010E94DD13DA01C9010197A109D5
:10136000B109B695A79597958795AC01411580E190
:101370005807A8F0E889F989108260E874E88EE1DE
:1013800090E0A70196010E94DD13BA01A901415026
:101390005109610971097695679557954795EC85CF
:1013A000FD855083EE85FF854083188EEC89FD898D
:1013B0001083EA89FB89808180618083EA89FB89C7
:1013C000808188608083EA89FB898081806880834E
:1013D000EA89FB8980818F7D8083DF91CF911F9186
:1013E000FF90EF90DF90CF9008951F920F920FB66D
:1013F0000F9211242F938F939F93EF93FF93E0917C
:101400004103F09142038081E0914703F09148034A
:1014100082FD12C0908180914A038F5F8F7320916B
:101420004B03821751F0E0914A03F0E0EF5CFC4F70
:10143000958F80934A0301C08081FF91EF919F9126
:101440008F912F910F900FBE0F901F9018951F92A4
:101450000F920FB60F9211242F933F934F935F93E8
:101460006F937F938F939F93AF93BF93EF93FF936C
:1014700081E393E00E940609FF91EF91BF91AF9144
:101480009F918F917F916F915F914F913F912F919C
:101490000F900FBE0F901F90189581E393E00E946C
:1014A000CA0821E0892B09F420E0822F0895E1E3A6
:1014B000F3E01382128288EE93E0A0E0B0E0848330
:1014C0009583A683B7838CED91E09183808385EC2F
:1014D00090E09587848784EC90E09787868780ECFE
:1014E00090E0918B808B81EC90E0938B828B82ECEF
:1014F00090E0958B848B86EC90E0978B868B118E99
:10150000128E138E148E089508950E94390C0E9435
:10151000840A0E94B900C8EFD8E00E94D700209743
:10152000E1F30E94F808F9CFCF92DF92EF92FF9299
:101530000F931F93CF93DF936C017A018B01C0E06F
:10154000D0E0CE15DF0589F0D8016D918D01D6016F
:10155000ED91FC910190F081E02DC6010995892B58
:1015600011F47E0102C02196ECCFC701DF91CF912B
:101570001F910F91FF90EF90DF90CF90089561152C
:10158000710579F0FB0101900020E9F73197AF0177
:10159000461B570BDC01ED91FC910280F381E02D9D
:1015A000099480E090E008950C94BF0ADC01ED916D
:1015B000FC910190F081E02D09944F925F926F921F
:1015C0007F92EF92FF920F931F93CF93DF93CDB74C
:1015D000DEB7A1970FB6F894DEBF0FBECDBF7C017A
:1015E000FA01CB0119A2223008F42AE08E010F5D26
:1015F0001F4F422E512C612C712CBF01A30192016F
:101600000E94DD13F901CA01015011096A3014F476
:10161000605D01C0695CD8016C93232B242B252BC2
:1016200061F7B801C7010E94BF0AA1960FB6F894EE
:10163000DEBF0FBECDBFDF91CF911F910F91FF9005
:10164000EF907F906F905F904F900895CF92DF92D0
:10165000EF92FF920F931F93CF93DF93EC016A01F8
:101660007B012115310579F4E881F9810190F08140
:10167000E02D642FDF91CF911F910F91FF90EF909C
:10168000DF90CF9009942A303105E9F477FF1AC032
:101690006DE20E94D60A8C0144275527BA014C19E5
:1016A0005D096E097F092AE0CE010E94DD0A800FE4
:1016B000911FDF91CF911F910F91FF90EF90DF90DD
:1016C000CF9008952AE0B701A601CE01DF91CF9116
:1016D0001F910F91FF90EF90DF90CF900C94DD0A57
:1016E0009A01AB01770F660B770B0C94260B1F92B8
:1016F0000F920FB60F9211242F933F938F939F93C6
:10170000AF93BF938091CF039091D003A091D10369
:10171000B091D2033091CE0323E0230F2D3720F474
:101720000196A11DB11D05C026E8230F0296A11D3B
:10173000B11D2093CE038093CF039093D003A09349
:10174000D103B093D2038091D3039091D403A0919D
:10175000D503B091D6030196A11DB11D8093D3038B
:101760009093D403A093D503B093D603BF91AF91C8
:101770009F918F913F912F910F900FBE0F901F90CF
:1017800018952FB7F8946091CF037091D003809192
:10179000D1039091D2032FBF08953FB7F894809161
:1017A000D3039091D403A091D503B091D60326B56D
:1017B000A89B05C02F3F19F00196A11DB11D3FBF89
:1017C000BA2FA92F982F8827820F911DA11DB11D17
:1017D000BC01CD0142E0660F771F881F991F4A9513
:1017E000D1F708958F929F92AF92BF92CF92DF92DE
:1017F000EF92FF926B017C010E94CD0B4B015C01CB
:10180000C114D104E104F10401F10E9404130E9407
:10181000CD0BDC01CB0188199909AA09BB09883EC7
:101820009340A105B10560F321E0C21AD108E10897
:10183000F10888EE880E83E0981EA11CB11CC1142B
:10184000D104E104F10419F7DBCFFF90EF90DF90B2
:10185000CF90BF90AF909F908F9008958230910568
:1018600038F0880F991F880F991F05970197F1F796
:101870000895789484B5826084BD84B5816084BD08
:1018800085B5826085BD85B5816085BDEEE6F0E0F9
:10189000808181608083E1E8F0E010828081826055
:1018A0008083808181608083E0E8F0E080818160D6
:1018B0008083E1EBF0E0808184608083E0EBF0E006
:1018C000808181608083EAE7F0E0808184608083AA
:1018D0008081826080838081816080838081806854
:1018E00080831092C1000895862F0C949A13862F3E
:1018F000642F0C946A13862F642F0C942E134F922E
:101900005F926F927F928F929F92AF92BF92CF928F
:10191000DF92EF920F93CF93DF93EC015B013A01DB
:10192000490102960E94C3138CEE91E0998388834B
:101930006E018CE1C80ED11C2E0188E5480E511CA9
:10194000C6010E94C31386E0C80ED11CC414D5047E
:10195000B9F7FE01EE59FF4F718260823296918293
:101960008082329600833196E0823797B182A082DE
:1019700038968AE090E091838083329684EF91E0FC
:101980009183808333961182108271971082118225
:1019900012821382C459DF4F1882DF91CF910F91C9
:1019A000EF90DF90CF90BF90AF909F908F907F90FF
:1019B0006F905F904F9008952F923F924F925F9259
:1019C0006F927F928F929F92AF92BF92CF92DF924F
:1019D000EF92FF920F931F93CF93DF93CDB7DEB7B4
:1019E00028970FB6F894DEBF0FBECDBF98878F83C0
:1019F00010E04C0186E6880E911CEF80F88492E698
:101A0000E90EF11CD4018C911817A0F4AF81B885B0
:101A10008D919C91F701A081B181A10FB11DFC01B5
:101A20002081318142E06C918F819885F90109957F
:101A30001F5FE8CFF12CEF81F885E959FF4FFA835A
:101A4000E983CF80D884F4E6CF0ED11C412C512CF1
:101A5000320143948F8198858E599F4F9C838B834D
:101A6000E981FA818081F81608F088C0AF2CB12C8A
:101A7000AF81B8858D919C91F601A081B181AA0DAD
:101A8000BB1DFC012081318141E06C918F819885E3
:101A9000F9010995AF81B8858D919C91F601A081DE
:101AA000B181AA0DBB1DFC012281338140E06C9104
:101AB0008F819885F9010995D301C2010F2C04C0CB
:101AC000880F991FAA1FBB1F0A94D2F79C011C0103
:101AD00020943094E12CF4018081AF81B885ED91A0
:101AE000FC91E81648F50E2D10E0AB81BC818D917C
:101AF0009C91DC01A00FB11F0480F581E02D6C9159
:101B00008F8198852D833E830995000F111F2D81AC
:101B10003E81EF81F885E00FF11F892B29F4808544
:101B20009185822B932B04C08085918582219321FE
:101B300091878087E394CFCFD6018D919C91DC0172
:101B4000AA0DBB1D0280F381E02D41E06C918F81D5
:101B500098850995AF81B885ED91FC91D6018D915D
:101B60009C91DC01AA0DBB1D0190F081E02D40E0AD
:101B70006C918F8198850995F39472CF28960FB652
:101B8000F894DEBF0FBECDBFDF91CF911F910F91B3
:101B9000FF90EF90DF90CF90BF90AF909F908F908D
:101BA0007F906F905F904F903F902F900895FC0131
:101BB00080E090E0258D368D2617370739F00196A5
:101BC00036968A309105B1F78FEF9FEF0895DC01CB
:101BD00026E0629FA00DB11D112490965C934E9358
:101BE0005F9721E091962C939197FC01E459FF4F68
:101BF000208131960190F081E02D222331F0309741
:101C000049F0611107C0DC0102C0309719F05C9601
:101C10008C91099408956F927F928F929F92AF92C8
:101C2000BF92CF92DF92EF92FF921F93CF93DF93F9
:101C30001F92CDB7DEB73C01162FFC0186E0689FEE
:101C4000E00DF11D112411A2878D90A18130910525
:101C5000F9F01CF4892B51F04FC082309105B1F19D
:101C6000039709F049C040E050E034C0442309F430
:101C700043C041E050E0C3010E94E70D0E94C10B48
:101C8000F301E85AFF4F608371838283938334C0EA
:101C900049830E94C10BF301E85AFF4FC080D180F5
:101CA000E280F3804B015C018C189D08AE08BF08F0
:101CB000729680819181A0E0B0E0498188159905F4
:101CC000AA05BB0518F442E050E004C0411114C05D
:101CD00043E050E0612FC3010F90DF91CF911F913E
:101CE000FF90EF90DF90CF90BF90AF909F908F903C
:101CF0007F906F900C94E70D0F90DF91CF911F9123
:101D0000FF90EF90DF90CF90BF90AF909F908F901B
:101D10007F906F9008952F923F924F925F926F92B3
:101D20007F928F929F92AF92BF92CF92DF92EF926B
:101D3000FF920F931F93CF93DF9300D01F92CDB7E5
:101D4000DEB79B838A836C012CE1C20ED11C885ABA
:101D50009F4FF6012FEF3FEF43815481452B21F434
:101D600010823283218315823696E817F907A1F78E
:101D7000312C4A805B8036E6430E511CAA80BB8022
:101D800087E6A80EB11C8A809B80A0E68A0E911C73
:101D9000F2018081381608F05CC0212C8A819B8179
:101DA000830D911D830D911D9C01285F3F4F79018B
:101DB000D5016C90261408F04AC0F701008111810A
:101DC000022C02C0169507950A94E2F701701127BC
:101DD000369C30011124620C711CD401ED91FC91F0
:101DE000E60DF71D2081B3018A819B8129830E9422
:101DF000D70D298197FD04C0402F4170682F1AC06C
:101E0000019619F5012B09F1F60160E070E080817F
:101E1000811115C0E6E0E69FC001E79F900D1124F7
:101E2000EA81FB81E80FF91F248F768E658E10A260
:101E3000178E41E08A819B810E940B0E06C06F5F66
:101E40007F4F36966A30710511F72394B1CF3394E2
:101E50009FCFEA81FB81B1962A813B81235A3F4F74
:101E600080E09081911181E03696E217F307C9F77F
:101E70000F900F900F90DF91CF911F910F91FF90D6
:101E8000EF90DF90CF90BF90AF909F908F907F901A
:101E90006F905F904F903F902F900895CF92DF9278
:101EA000EF92FF920F931F93CF93DF93EC010E9469
:101EB000C10B8E01045A1F4FF801C080D180E2800F
:101EC000F380AB01BC014C195D096E097F093C969A
:101ED00080819181A0E0B0E084179507A607B7073D
:101EE00078F4CE010E94DC0CCE010E948B0EC82F2C
:101EF0000E94C10BF801608371838283938301C0C8
:101F0000C0E08C2FDF91CF911F910F91FF90EF9048
:101F1000DF90CF9008950F931F93CF93DF93EC0141
:101F20008C0104591F4F81E0F8018083CE010E948B
:101F30004E0F882349F089A1882331F08F8D98A115
:101F4000019711F48C8D03C0F801108280E0DF91BD
:101F5000CF911F910F910895CF93DF93EC0160E033
:101F60008E810E946A1381E090E00E942E0C61E055
:101F70008E810E946A1381E090E00E942E0C60E046
:101F80008E810E946A1384E690E0DF91CF910C94D9
:101F90002E0CCF92DF92EF92FF920F931F93CF936D
:101FA000DF937C016C0187E0C80ED11CC0E0D0E05B
:101FB000062F10E0B8010C2E02C0759567950A94A3
:101FC000E2F76170F60181916F010E946A13219618
:101FD000C430D10579F7C701DF91CF911F910F91DF
:101FE000FF90EF90DF90CF900C94AC0FCF92DF92E8
:101FF000EF92FF920F931F93CF93DF937C016C01BD
:1020000087E0C80ED11CC0E0D0E0062F10E0B80178
:102010000C2E02C0759567950A94E2F76170F6017F
:1020200081916F010E946A132196C830D10579F71A
:10203000C701DF91CF911F910F91FF90EF90DF903B
:10204000CF900C94AC0F1F93CF93DF93EC01162F1E
:10205000642F8C810E946A138D818F3F19F060E09C
:102060000E946A138F85612F84FF06C0CE01DF9125
:10207000CF911F910C94F60F70E084E075956795F1
:102080008A95E1F7CE010E94C90F612FCE01DF9141
:10209000CF911F910C94C90F40E00C94231061E084
:1020A0000E944C1080ED97E00C942E0CFC01443003
:1020B00008F043E08389481710F04FEF480FDF0125
:1020C000A40FB11D54969C91690F6068CF010C94C8
:1020D0004C10FC016089262F2460208B6C600C94CE
:1020E0004C10EF92FF920F931F93CF93DF93EC016D
:1020F000423018F08F8588608F874B8B1C8A80E474
:102100008D8B6E8B70E0605C7F4F6F8B222329F08C
:10211000413019F48F8584608F8761E08C810E9443
:102120002E138D818F3F19F061E00E942E1361E024
:102130008E810E942E137E0187E0E80EF11C00E0E4
:1021400010E08F8584FD03C084E090E002C088E049
:1021500090E0081719074CF461E0F70181917F01C5
:102160000E942E130F5F1F4FECCF80E593EC0E946F
:102170002E0C60E08C810E946A1360E08E810E94C8
:102180006A138D818F3F19F060E00E946A136F859A
:1021900064FD1DC063E0CE010E94C90F84E991E196
:1021A0000E942E0C63E0CE010E94C90F84E991E1E8
:1021B0000E942E0C63E0CE010E94C90F86E990E0D8
:1021C0000E942E0C62E0CE010E94C90F16C0606210
:1021D000CE010E944C1084E991E10E942E0C6F8583
:1021E0006062CE010E944C1086E990E00E942E0CA5
:1021F0006F856062CE010E944C106F856062CE01D7
:102200000E944C1084E0888BCE010E946910CE01A0
:102210000E944F1082E0898B66E0CE01DF91CF9162
:102220001F910F91FF90EF900C944C10CF92EF9272
:102230000F93FC011382128286EF91E091838083D9
:1022400064838FEF8583468327830087E186C28678
:102250001386148615861686178620E041E060E115
:10226000CF010F91EF90CF900C94711041E00E943C
:10227000231081E090E00895EF92FF920F931F9357
:10228000CF93DF93EC01842F1B861A861982188264
:102290001E8A1F8A188E198E7F836E834C875D87F6
:1022A0003F872E87198B088BFB8AEA8A61E00E94A0
:1022B0002E1361E08E850E942E1361E088890E94B2
:1022C0002E1361E08A890E942E131D8A1C8A84E0E5
:1022D00090E099878887DF91CF911F910F91FF90B0
:1022E000EF900895CF92DF92EF92FF920F931F939A
:1022F000CF93DF93EC016A017B010E811F8198016E
:10230000110F440B550B60E077E883E993E00E94DE
:10231000FF13CA01B901A70196010E94FF132A8386
:102320003B834C835D83DF91CF911F910F91FF9091
:10233000EF90DF90CF9008950F931F93CF93DF938B
:10234000EC018B01888599850297F1F46130710564
:1023500069F024F4672BC1F460E009C062307105B4
:1023600059F06330710581F460E007C061E08C854D
:102370000E946A1361E005C061E08C850E946A13C7
:1023800060E08E850E946A13888599850497B9F567
:1023900001301105B1F04CF40115110581F561E032
:1023A0008C850E946A1360E011C002301105B9F0FB
:1023B0000330110521F561E08C850E946A1360E00D
:1023C00013C060E08C850E946A1361E08E850E94D4
:1023D0006A1361E088890E946A1360E00DC060E0C2
:1023E0008C850E946A1361E08E850E946A1360E00A
:1023F00088890E946A1361E08A890E946A1388852D
:102400009985059709F073C00A30110508F06FC06F
:10241000F801EC5CFF4F0C941E1460E08C850E9468
:102420006A1361E051C060E08C850E946A1361E02C
:102430008E850E946A1360E04BC060E08C850E942C
:102440006A1361E08E850E946A1360E088890E94A9
:102450006A1361E041C060E001C061E08C850E94C8
:102460006A1361E005C061E08C850E946A1360E038
:102470008E850E946A1360E009C061E08C850E942D
:102480006A1360E08E850E946A1361E088890E9469
:102490006A1361E00DC061E08C850E946A1360E000
:1024A0008E850E946A1361E088890E946A1360E049
:1024B0008A890E946A1360E013C061E001C060E095
:1024C0008C850E946A1360E08E850E946A1361E029
:1024D00088890E946A1360E08A890E946A1361E019
:1024E0008C89DF91CF911F910F910C946A13DF912A
:1024F000CF911F910F9108954F925F926F927F92AB
:102500008F929F92AF92BF92CF92DF92EF92FF9203
:102510000F931F93CF93DF93EC018B0177FF04C0E0
:1025200000271127061B170B161617062CF481E03F
:1025300090E09983888304C0672B11F01982188278
:1025400084E0E82EF12C9AE0C92ED12C011511055A
:1025500009F449C00E94CD0B8E889F88A88CB98C45
:102560002B013C01481859086A087B088A809B8027
:10257000AC80BD80481459046A047B0438F36E8B28
:102580007F8B888F998F288139818A859B8521301F
:10259000310559F401969B878A872E813F818217E6
:1025A000930771F41B861A860BC0892B21F48E8148
:1025B0009F819B878A878A859B8501979B878A87CE
:1025C00001501109288539858A859B85253031057B
:1025D00011F4B60101C0B7010E94C913BC01CE01BC
:1025E0000E949C11B3CFDF91CF911F910F91FF906B
:1025F000EF90DF90CF90BF90AF909F908F907F90A3
:102600006F905F904F9008950895833081F028F483
:10261000813099F08230A1F008958730A9F0883098
:10262000B9F08430D1F4809180008F7D03C0809117
:1026300080008F7780938000089584B58F7702C0E3
:1026400084B58F7D84BD08958091B0008F7703C0DD
:102650008091B0008F7D8093B0000895CF93DF9379
:1026600090E0FC01E057FF4F2491FC01EC55FF4F37
:102670008491882361F190E0880F991FFC01E45355
:10268000FF4FC591D491FC01EE53FF4FA591B4913A
:10269000611109C09FB7F8948881209582238883AF
:1026A000EC912E230BC0623061F49FB7F89438810F
:1026B000822F809583238883EC912E2B2C939FBFB0
:1026C00006C08FB7F894E8812E2B28838FBFDF9147
:1026D000CF9108951F93CF93DF93282F30E0F90116
:1026E000E458FF4F8491F901E057FF4FD491F9016D
:1026F000EC55FF4FC491CC23C9F0162F81110E94D5
:102700000513EC2FF0E0EE0FFF1FEE53FF4FA591E6
:10271000B4918FB7F894111105C09C91ED2FE095FD
:10272000E92302C0EC91ED2BEC938FBFDF91CF91A9
:102730001F910895CF93DF93282F30E0F901E458DB
:10274000FF4F8491F901E057FF4FD491F901EC5507
:10275000FF4FC491CC2391F081110E940513EC2FFF
:10276000F0E0EE0FFF1FE854FF4FA591B491EC91FC
:10277000ED2381E090E021F480E002C080E090E071
:10278000DF91CF910895FC0110821482138215828B
:10279000089597FB072E16F4009407D077FD09D013
:1027A0000E94241407FC05D03EF4909581959F4F1C
:1027B0000895709561957F4F0895A1E21A2EAA1B86
:1027C000BB1BFD010DC0AA1FBB1FEE1FFF1FA217E1
:1027D000B307E407F50720F0A21BB30BE40BF50BDE
:1027E000661F771F881F991F1A9469F76095709567
:1027F000809590959B01AC01BD01CF010895052EF8
:1028000097FB1EF400940E94161457FD07D00E94F7
:10281000DD1307FC03D04EF40C941614509540952C
:10282000309521953F4F4F4F5F4F0895909580957C
:10283000709561957F4F8F4F9F4F0895EE0FFF1F4B
:102840000590F491E02D0994AA1BBB1B51E107C030
:10285000AA1FBB1FA617B70710F0A61BB70B881F30
:10286000991F5A95A9F780959095BC01CD010895BF
:04287000F894FFCF0A
:102874003132334134353642373839432A302344F0
:102884003132334134353642373839432A302344E0
:1028940009080706050403020908070605040302DC
:1028A4004D2E4620636F6E74726F6C00233A46722D
:1028B4006565202F202A3A4175746F00202020205E
:1028C40020202020202020202020202000546F20A1
:1028D400537461727420507573683A41004D616994
:1028E4006E204D656E7520507573683A4400546FC0
:1028F4002073746F7020507573683A4200726F6C65
:102904006C7300656E746572207468652076616C02
:1029140075650020207468656E20707573683A438D
:102924002000423A73746F700046696E7368202009
:1029340000413A52554E20200020746F2052756E8B
:1029440020507573683A4300000000004909940A56
:10295400CA08E408D6082709000000007B0C770C9D
:0A296400740C000000003611940A04
:00000001FF
